{
  "contractName": "SmartCurrency",
  "abi": [
    {
      "constant": true,
      "inputs": [
        {
          "name": "",
          "type": "bytes32"
        }
      ],
      "name": "documentStructs",
      "outputs": [
        {
          "name": "file",
          "type": "string"
        },
        {
          "name": "ack",
          "type": "string"
        }
      ],
      "payable": false,
      "stateMutability": "view",
      "type": "function"
    },
    {
      "constant": false,
      "inputs": [
        {
          "name": "key",
          "type": "bytes32"
        },
        {
          "name": "file",
          "type": "string"
        }
      ],
      "name": "StoreDocument",
      "outputs": [
        {
          "name": "success",
          "type": "bool"
        }
      ],
      "payable": false,
      "stateMutability": "nonpayable",
      "type": "function"
    }
  ],
  "bytecode": "0x6060604052341561000f57600080fd5b61034a8061001e6000396000f30060606040526004361061004c576000357c0100000000000000000000000000000000000000000000000000000000900463ffffffff16806372061b9114610051578063f14bf89e14610197575b600080fd5b341561005c57600080fd5b610076600480803560001916906020019091905050610219565b6040518080602001806020018381038352858181546001816001161561010002031660029004815260200191508054600181600116156101000203166002900480156101035780601f106100d857610100808354040283529160200191610103565b820191906000526020600020905b8154815290600101906020018083116100e657829003601f168201915b50508381038252848181546001816001161561010002031660029004815260200191508054600181600116156101000203166002900480156101865780601f1061015b57610100808354040283529160200191610186565b820191906000526020600020905b81548152906001019060200180831161016957829003601f168201915b505094505050505060405180910390f35b34156101a257600080fd5b6101ff60048080356000191690602001909190803590602001908201803590602001908080601f0160208091040260200160405190810160405280939291908181526020018383808284378201915050505050509190505061023b565b604051808215151515815260200191505060405180910390f35b6000602052806000526040600020600091509050806000019080600101905082565b6000816000808560001916600019168152602001908152602001600020600001908051906020019061026e929190610279565b506001905092915050565b828054600181600116156101000203166002900490600052602060002090601f016020900481019282601f106102ba57805160ff19168380011785556102e8565b828001600101855582156102e8579182015b828111156102e75782518255916020019190600101906102cc565b5b5090506102f591906102f9565b5090565b61031b91905b808211156103175760008160009055506001016102ff565b5090565b905600a165627a7a72305820ead3179f58c39c23cc7fffe4374709dc46f6696026cb7706a9b2304c8d6db75d0029",
  "source": "pragma solidity ^0.4.6;\ncontract SmartCurrency {\n\n  \n\n\n // This is a Type\n struct DocumentStruct{\n   // Not possible to pass strings between contracts at this time\n   string file;\n   string ack;\n  \n\n  \n }\n   \n\n // This is a namespace where we will store docs of Type DocumentStruct\n  mapping(bytes32 => DocumentStruct) public documentStructs;\n\n\n // Set values in storage\n function StoreDocument( bytes32 key,  string file) returns (bool success) {\n  documentStructs[key].file  = file;\n \n \n \n\n  return true;\n }\n\n}",
  "sourcePath": "/home/rpqb-desk-004/project/Ethreum-project/contracts/SmartCurrency.sol",
  "compiler": {
    "name": "solc",
    "version": "0.4.19+commit.c4cbbb05.Emscripten.clang"
  },
  "schemaVersion": "2.0.0",
  "updatedAt": "2018-04-05T13:24:27.272Z"
}