{
  "contractName": "SmartCurrency",
  "abi": [
    {
      "constant": true,
      "inputs": [
        {
          "name": "",
          "type": "bytes32"
        }
      ],
      "name": "documentStructs",
      "outputs": [
        {
          "name": "url",
          "type": "bytes32"
        },
        {
          "name": "Key",
          "type": "bytes32"
        }
      ],
      "payable": false,
      "stateMutability": "view",
      "type": "function"
    },
    {
      "constant": false,
      "inputs": [
        {
          "name": "sndKey",
          "type": "bytes32"
        },
        {
          "name": "url",
          "type": "bytes32"
        },
        {
          "name": "Key",
          "type": "bytes32"
        }
      ],
      "name": "StoreDocument",
      "outputs": [
        {
          "name": "success",
          "type": "bool"
        }
      ],
      "payable": false,
      "stateMutability": "nonpayable",
      "type": "function"
    },
    {
      "constant": true,
      "inputs": [
        {
          "name": "recKey",
          "type": "bytes32"
        }
      ],
      "name": "getUrl",
      "outputs": [
        {
          "name": "",
          "type": "bytes32"
        }
      ],
      "payable": false,
      "stateMutability": "view",
      "type": "function"
    }
  ],
  "bytecode": "0x6060604052341561000f57600080fd5b61021a8061001e6000396000f300606060405260043610610057576000357c0100000000000000000000000000000000000000000000000000000000900463ffffffff168063334f22c71461005c57806372061b911461009f5780639d242f0b146100f1575b600080fd5b341561006757600080fd5b61008160048080356000191690602001909190505061014a565b60405180826000191660001916815260200191505060405180910390f35b34156100aa57600080fd5b6100c4600480803560001916906020019091905050610171565b60405180836000191660001916815260200182600019166000191681526020019250505060405180910390f35b34156100fc57600080fd5b6101306004808035600019169060200190919080356000191690602001909190803560001916906020019091905050610195565b604051808215151515815260200191505060405180910390f35b60008060008360001916600019168152602001908152602001600020600001549050919050565b60006020528060005260406000206000915090508060000154908060010154905082565b6000826000808660001916600019168152602001908152602001600020600001816000191690555081600080866000191660001916815260200190815260200160002060010181600019169055506001905093925050505600a165627a7a723058203388c15601b51eb249dab1139a8f7610fcb72b90ccb9688e92d080c35d7045b40029",
  "source": "pragma solidity ^0.4.6;\ncontract SmartCurrency {\n  \n // This is a Type\n struct DocumentStruct{\n   // Not possible to pass strings between contracts at this time\n     bytes32 url;\n     bytes32 Key;\n//  string sndKey;\n  }\n   \n // This is a namespace where we will store docs of Type DocumentStruct\n  mapping(bytes32 => DocumentStruct) public documentStructs;\n // Set values in storage\n\n function StoreDocument( bytes32 sndKey, bytes32 url, bytes32 Key) public returns (bool success) {\n//  documentStructs[pubKey].url  = url;\n  \n  documentStructs[sndKey].url = url;\n    documentStructs[sndKey].Key = Key;\n return true;\n }\n \n function getUrl(bytes32 recKey) public constant returns (bytes32){\n     return documentStructs[recKey].url;\n\n }\n \n \n}",
  "sourcePath": "/home/rpqb-desk-004/Ethreum-project/contracts/SmartCurrency.sol",
  "compiler": {
    "name": "solc",
    "version": "0.4.19+commit.c4cbbb05.Emscripten.clang"
  },
  "schemaVersion": "2.0.0",
  "updatedAt": "2018-05-02T06:23:37.833Z"
}